S018000054656D7065726174757253656E736F722E7372656369
S11300000C9433000C943D000C943D000C943D0082
S11300100C943D000C943D000C943D000C943D0068
S11300200C943D000C943D000C943D000C943D0058
S11300300C943D000C943D000C943D000C943D0048
S11300400C943D000C943D000C943D000C943D0038
S11300500C943D00AE00C200BF00BC00B900B60065
S1130060B300AC00B00011241FBECFE5D8E0DEBF62
S1130070CDBF0E9492020C94E4040C9400008FEF14
S113008084BB83EA8FBD89E18EBD82E990E09BBD8C
S11300908ABD8C9A0895CF92DF92EF92FF926B0102
S11300A07C016AB57BB580E090E00E94C503A7019E
S11300B096010E947B040E94990379BD68BDFF905C
S11300C0EF90DF90CF9008950F931F93CF93DF931A
S11300D028E73AE745EA5CE30E947B042CEE31E52D
S11300E048EF5EE30E94C302062F172FD82FC92FB3
S11300F02AE037ED43E25CE30E94280388238CF076
S113010020E030E040E85FE3602F712F8D2F9C2FBB
S11301100E94770418164CF400E010E0D0E8CFE316
S113012004C00AE017EDD3E2CCE3602F712F8D2FCA
S11301309C2FDF91CF911F910F9108950E942C0362
S11301400E949903862F90E089309105F0F4FC0118
S1130150E65DFF4F0C94DE0480E003C080E016C02F
S113016080E8806401C080E0806201C080E080613A
S113017001C080E0886001C080E0846001C080E04C
S1130180826001C080E0816001C08FEF809585BBF3
S1130190089516B896B1956896B987B93E9A369A75
S11301A03699FECF84B195B140E180E090E0369A73
S11301B03699FECF24B135B1820F931F4150B9F760
S11301C03798929582958F7089279F708927089513
S11301D02F923F924F925F926F927F928F929F9253
S11301E0AF92BF92CF92DF92EF92FF920F931F9341
S11301F0CF93DF93CDB7DEB728970FB6F894DEBF61
S11302000FBECDBF6B017C0120E030E0A9010E944C
S1130210280388233CF4F7FAF094F7F8F0940FEFEE
S11302201FEF02C001E010E0C701B6010E94940371
S11302304B015C013B0116161706FCF4412C512CB2
S113024080E090E0A0E8BFE38D839E83AF83B8870E
S113025060E070E080E89FE325E538EF4DE250E48C
S11302600E947B04AFEF4A1A5A0A46145704A1F7B6
S11302706D837E838F83988708C080E090E0A0E838
S1130280BFE38D839E83AF83B887B401882777FD4E
S11302908095982F0E94C7039B01AC01C701B6014A
S11302A00E94C30269837A838B839C8322242394D0
S11302B0312C0F2E812C912CF0E8AF2EFFE3BF2EB2
S11302C0F02D750164012401350129813A814B81A6
S11302D05C81C701B6010E947B046B017C01B10102
S11302E0882777FD8095982F0E94C7039B01AC0156
S11302F0C501B4010E947B044B015C019B01AC016C
S1130300C701B6010E942C039B01AC01C301B201D9
S11303100E94C4022B013C019FEF291A390AAFE065
S11303202A16310491F60F3F1F4F89F42D813E8127
S11303304F815885C301B2010E947B049B01AC012B
S113034060E070E080E89FE30E942C0308C02D81E8
S11303503E814F815885C301B2010E947B042896D7
S11303600FB6F894DEBF0FBECDBFDF91CF911F91C2
S11303700F91FF90EF90DF90CF90BF90AF909F9040
S11303808F907F906F905F904F903F902F90089543
S11303904F925F926F927F92AF92BF92CF92DF9211
S11303A0EF92FF920F931F93CF93DF935C016A0147
S11303B07B012801390118161906ECF4C0E0D0E0DD
S11303C0C701B60190580E94E800A30192010E945F
S11303D07B0420E030E040E85FE30E94C3029B011D
S11303E0AC01C701B6010E94C4026B017C012196D5
S11303F0CA15DB0529F7C701B601DF91CF911F911B
S11304000F91FF90EF90DF90CF90BF90AF907F90CF
S11304106F905F904F900895DC01CB018827992756
S1130420A078BF77BC01CD01052E57E1969587953D
S1130430779567955A95D1F7502D0E94C50320E012
S113044030E04EEF52E40E94C30225E132E741E37B
S11304505FE30E947B040895CF92DF92EF92FF92B4
S11304600F931F93CF93DF936B017C0120E030E067
S113047040E85FE30E94280388236CF4A7019601F7
S113048060E070E080E89FE30E942C036B017C0134
S1130490CFEFDFEF02C0C1E0D0E0C701B6010E9498
S11304A00C02AB01BC019701860183E090E00E943D
S11304B0C8016B017C01BE01882777FD8095982FC8
S11304C00E94C703A70196010E947B04DF91CF918C
S11304D01F910F91FF90EF90DF90CF90089520E04F
S11304E030E44CE955E40E942C030E942C0227E6D8
S11304F037E147E959E30E947B042DE03FEC4BE5EB
S11305005BE30E94C4029B01AC0160E070E080E800
S11305109FE30E942C0323E333E948E853E40E9459
S1130520C30208950E943F0080E00E94C900BC01FC
S113053080E090E00E94C5039B01AC0160E070EC98
S11305408FE794E40E942C0320E030E040E85FE36E
S11305500E94C3029B01AC0160E070E081E695E477
S11305600E942C030E946F026B017C0120E030E0AA
S113057048E451E40E949E00C701B6010E94640051
S11305800E944B00D1CF5058BB27AA270ED075C16B
S113059066D130F06BD120F031F49F3F11F41EF49A
S11305A05BC10EF4E095E7FB51C1E92F77D180F3ED
S11305B0BA17620773078407950718F071F49EF55C
S11305C08FC10EF4E0950B2EBA2FA02D0B01B901AB
S11305D090010C01CA01A0011124FF27591B99F0B5
S11305E0593F50F4503E68F11A16F040A22F232FC1
S11305F0342F4427585FF3CF469537952795A79511
S1130600F0405395C9F77EF41F16BA0B620B730BB7
S1130610840BBAF09150A1F0FF0FBB1F661F771F28
S1130620881FC2F70EC0BA0F621F731F841F48F4DD
S1130630879577956795B795F7959E3F08F0B3CF63
S11306409395880F08F09927EE0F9795879508954D
S1130650D9D008F481E008950CD00FC107D140F03F
S1130660FED030F021F45F3F19F0F0C0511139C1D0
S1130670F3C014D198F39923C9F35523B1F3951B0F
S1130680550BBB27AA2762177307840738F09F5FAF
S11306905F4F220F331F441FAA1FA9F333D00E2E1E
S11306A03AF0E0E830D091505040E695001CCAF78B
S11306B029D0FE2F27D0660F771F881FBB1F261750
S11306C037074807AB07B0E809F0BB0B802DBF0123
S11306D0FF2793585F4F2AF09E3F510568F0B6C03C
S11306E000C15F3FECF3983EDCF386957795679500
S11306F0B795F7959F5FC9F7880F911D96958795D4
S113070097F90895E1E0660F771F881FBB1F6217F2
S113071073078407BA0720F0621B730B840BBA0BB0
S1130720EE1F88F7E095089504D06894B111D9C0FC
S11307300895BCD088F09F5790F0B92F9927B751EE
S1130740A0F0D1F0660F771F881F991F1AF0BA9591
S1130750C9F712C0B13081F0C3D0B1E00895C0C070
S1130760672F782F8827B85F39F0B93FCCF3869587
S113077077956795B395D9F73EF4909580957095E4
S113078061957F4F8F4F9F4F0895E89409C097FB61
S11307903EF490958095709561957F4F8F4F9F4F54
S11307A09923A9F0F92F96E9BB279395F695879598
S11307B077956795B795F111F8CFFAF4BB0F11F45B
S11307C060FF1BC06F5F7F4F8F4F9F4F16C0882302
S11307D011F096E911C0772321F09EE8872F762F38
S11307E005C0662371F096E8862F70E060E02AF079
S11307F09A95660F771F881FDAF7880F9695879565
S113080097F90895990F0008550FAA0BE0E8FEEF39
S113081016161706E807F907C0F012161306E407C0
S1130820F50798F0621B730B840B950B39F40A26B9
S113083061F0232B242B252B21F408950A2609F497
S1130840A140A6958FEF811D811D089597F99F679B
S113085080E870E060E008959FEF80EC0895002444
S11308600A941616170618060906089500240A9411
S113087012161306140605060895092E0394000C97
S113088011F4882352F0BB0F40F4BF2B11F460FF26
S113089004C06F5F7F4F8F4F9F4F089557FD90584F
S11308A0440F551F59F05F3F71F04795880F97FB30
S11308B0991F61F09F3F79F08795089512161306EA
S11308C01406551FF2CF4695F1DF08C01616170619
S11308D01806991FF1CF869571056105089408954E
S11308E0E894BB2766277727CB0197F908958ADF19
S11308F008F48FEF08950BD0C0CFB1DF28F0B6DF36
S113090018F0952309F0A2CFA7CF1124EACFC6DFB0
S1130910A0F3959FD1F3950F50E0551F629FF0010E
S1130920729FBB27F00DB11D639FAA27F00DB11D67
S1130930AA1F649F6627B00DA11D661F829F2227F0
S1130940B00DA11D621F739FB00DA11D621F839F77
S1130950A00D611D221F749F3327A00D611D231F4D
S1130960849F600D211D822F762F6A2F11249F579B
S113097050408AF0E1F088234AF0EE0FFF1FBB1FBE
S1130980661F771F881F91505040A9F79E3F51055D
S113099070F05CCFA6CF5F3FECF3983EDCF3869516
S11309A077956795B795F795E7959F5FC1F7FE2B08
S11309B0880F911D9695879597F90895EE0FFF1F5F
S10F09C00590F491E02D0994F894FFCF09
S9030000FC
